:100000000C945D000C9485000C9485000C94850084
:100010000C9485000C9485000C9485000C9485004C
:100020000C9485000C9485000C9485000C9485003C
:100030000C9485000C9485000C9485000C9485002C
:100040000C94AB020C9485000C941B030C94F502E9
:100050000C9485000C9485000C9485000C9485000C
:100060000C9485000C9485000000000024002700FB
:100070002A0000000000250028002B0004040404CE
:100080000404040402020202020203030303030342
:10009000010204081020408001020408102001021F
:1000A00004081020000000080002010000030407FB
:1000B00000000000000000004D0311241FBECFEF20
:1000C000D8E0DEBFCDBF23E0AAE1B3E001C01D92BE
:1000D000A63DB207E1F713E0A0E0B1E0E2ECF9E001
:1000E00002C005900D92AA31B107D9F710E0CDE515
:1000F000D0E004C02197FE010E94D904CC35D1077D
:10010000C9F70E9497030C94D1040C940000EEEA06
:10011000F0E02491EAE9F0E09491E6E8F0E0E4917F
:10012000EE2309F43BC0222339F1233091F038F457
:100130002130A9F0223001F524B52F7D12C02730DF
:1001400091F02830A1F02430B9F4209180002F7D67
:1001500003C0209180002F77209380000DC024B52C
:100160002F7724BD09C02091B0002F7703C02091C4
:10017000B0002F7D2093B000F0E0EE0FFF1FEE588F
:10018000FF4FA591B4912FB7F894EC91811103C062
:1001900090959E2301C09E2B9C932FBF089590E0C5
:1001A000FC01E057FF4F2491FC01E458FF4F84917C
:1001B000882399F090E0880F991FFC01E859FF4FC0
:1001C000A591B491FC01EE58FF4F859194918FB7A2
:1001D000F894EC91E22BEC938FBF0895CF93DF93CB
:1001E000EC01E881F9810084F185E02DCE010995CB
:1001F0001816190644F4E881F9810284F385E02D8C
:10020000CE010995EECFDF91CF91089580E090E087
:1002100008958EBD00000DB407FEFDCF8EB5089584
:100220001F93CF93DF931F92CDB7DEB780E0698332
:100230000E9487006981862F80680E9409018FEFE4
:100240000E940901182F81E00E948700812F0F90E2
:10025000DF91CF911F910895CF93DF93EC01E88157
:10026000F9810084F185E02D0995892B31F060E05A
:10027000CE010E94100190E002C08FEF9FEFDF914E
:10028000CF91089568E40E94100190E00895CF9303
:10029000DF9300D0CDB7DEB780E04A8369830E9448
:1002A00087006981862F0E9409014A81842F0E945C
:1002B000090181E00F900F90DF91CF910C9487009E
:1002C0000F931F93CF93DF931F92CDB7DEB78C01AF
:1002D000462F60E4C80149830E94100149818823A8
:1002E000C1F360E0C8010E94470180E090E00F90F8
:1002F000DF91CF911F910F910895FC01538D448D93
:10030000252F30E0842F90E0821B930B541710F0C0
:10031000CF96089501970895FC01918D828D9817CD
:1003200061F0828DDF01A80FB11D5D968C91928DD9
:100330009F5F9F73928F90E008958FEF9FEF0895D6
:10034000FC01918D828D981731F0828DE80FF11D9F
:10035000858D90E008958FEF9FEF0895FC01918DBA
:10036000228D892F90E0805C9F4F821B91098F73B3
:1003700099270895FC01848DDF01A80FB11DA35AB0
:10038000BF4F2C91848D90E001968F739927848FB5
:10039000A689B7892C93A089B1898C9180648C93AC
:1003A000938D848D981306C00288F389E02D808197
:1003B0008F7D80830895EF92FF920F931F93CF93C9
:1003C000DF93EC0181E0888F9B8D8C8D981305C0A5
:1003D000E889F989808185FD24C0F62E0B8D10E017
:1003E0000F5F1F4F0F731127E02E8C8DE8120CC08A
:1003F0000FB607FCFACFE889F989808185FFF5CF30
:10040000CE010E94BA01F1CF8B8DFE01E80FF11DE4
:10041000E35AFF4FF0820B8FEA89FB89808180626B
:1004200007C0EE89FF896083E889F989808180644B
:10043000808381E090E0DF91CF911F910F91FF9039
:10044000EF900895CF93DF93EC01888D8823C9F056
:10045000EA89FB89808185FD05C0A889B9898C91CD
:1004600086FD0FC00FB607FCF5CF808185FFF2CF68
:10047000A889B9898C9185FFEDCFCE010E94BA0180
:10048000E7CFDF91CF91089589E393E00E94AE0119
:1004900021E0892B09F420E0822F089580E090E08C
:1004A000892B29F00E94440281110C9400000895C8
:1004B000CF92DF92EF92FF920F931F93CF93DF9330
:1004C0006C017A018B01C0E0D0E0CE15DF0589F028
:1004D000D8016D918D01D601ED91FC910190F081D3
:1004E000E02DC6010995892B11F47E0102C02196E9
:1004F000ECCFC701DF91CF911F910F91FF90EF904B
:10050000DF90CF900895089580E090E008950097DF
:1005100069F0FC0101900020E9F73197AF01481B19
:10052000590BBC0189E393E00C94580280E090E001
:10053000089584E291E00C948702CF93DF930E94A8
:100540008702EC010E9499028C0F9D1FDF91CF91D1
:1005500008950E94D4041F920F920FB60F92112497
:100560002F933F938F939F93AF93BF9380912003DB
:1005700090912103A0912203B091230330911F0396
:1005800023E0230F2D3720F40196A11DB11D05C0D6
:1005900026E8230F0296A11DB11D20931F0380930F
:1005A000200390932103A0932203B093230380910F
:1005B0001B0390911C03A0911D03B0911E03019693
:1005C000A11DB11D80931B0390931C03A0931D03D9
:1005D000B0931E03BF91AF919F918F913F912F9147
:1005E0000F900FBE0F901F9018951F920F920FB68D
:1005F0000F9211242F933F934F935F936F937F93A9
:100600008F939F93AF93BF93EF93FF9389E393E00F
:100610000E94BA01FF91EF91BF91AF919F918F918D
:100620007F916F915F914F913F912F910F900FBEEE
:100630000F901F9018951F920F920FB60F921124D2
:100640002F938F939F93EF93FF93E0914903F09142
:100650004A038081E0914F03F091500382FD12C064
:100660009081809152038F5F8F7320915303821783
:1006700051F0E0915203F0E0E75CFC4F958F8093DE
:10068000520301C08081FF91EF919F918F912F9133
:100690000F900FBE0F901F901895ADE2B3E0139628
:1006A0001C921E92129748EE53E060E070E01496A0
:1006B0004D935D936D937C93179784E091E0119631
:1006C0009C938E93E4E2F3E0B183A0831482B3831E
:1006D000A28380E590E0978386831582E9E3F3E0C7
:1006E00013821282448355836683778386E191E087
:1006F0009183808385EC90E09587848784EC90E0FB
:100700009787868780EC90E0918B808B81EC90E0DE
:10071000938B828B82EC90E0958B848B86EC90E0BF
:10072000978B868B118E128E138E148E089578946B
:1007300084B5826084BD84B5816084BD85B58260E6
:1007400085BD85B5816085BD80916E008160809397
:100750006E00109281008091810082608093810000
:100760008091810081608093810080918000816010
:10077000809380008091B10084608093B10080916B
:10078000B00081608093B00080917A008460809393
:100790007A0080917A00826080937A0080917A005A
:1007A000816080937A0080917A00806880937A00DB
:1007B0001092C100E0914903F0914A0382E08083E6
:1007C000E0914503F09146031082E0914703F091D8
:1007D00048038FEC808310925103E0914D03F09118
:1007E0004E0386E08083E0914B03F0914C038081BF
:1007F00080618083E0914B03F0914C03808188609D
:100800008083E0914B03F0914C038081806880836A
:10081000E0914B03F0914C0380818F7D808387E2D0
:1008200091E00E949D028EE491E00E949D020E9450
:10083000990285E791E00E949D028DEB91E00E9474
:100840009D028CE092E00E949D020E9499028BE43E
:1008500092E00E949D02CFB7F89480911A03811113
:1008600023C0E6E8F0E08491EAE9F0E09491E82F13
:10087000F0E0EE0FFF1FE859FF4FA591B491EC9106
:10088000E92319F481E00E9487008AE00E94CF00EA
:100890008CB580618CBD8CB580648CBD8DE00E9470
:1008A000CF008BE00E94CF0080911A038F5F80936E
:1008B0001A03CFBF40E868E18DE293E00E94470150
:1008C00040E660E08DE293E00E94470140E068E08E
:1008D0008DE293E00E9447014FEB68E18DE293E0E7
:1008E0000E94470140ED60E18DE293E00E944701E4
:1008F00043E068E18DE293E00E94470146E060E159
:100900008DE293E00E94470141E060E18DE293E0D7
:100910000E94470148E468E38DE293E00E944701AA
:1009200068E38DE293E00E941001883409F0FFCF64
:1009300080E792E00E949D020E94990287E892E07F
:100940000E949D028DEC92E00E949D020E949902FD
:1009500086E093E00E949D020E9499028DE293E05E
:100960000E9442011816190654F48DE293E00E9489
:100970002C01682F89E393E00E94DB01EFCF89E32C
:1009800093E00E94AE01892B49F089E393E00E9435
:100990008C01682F8DE293E00E9460010E944E025C
:1009A000DDCFF8940C94DF0481E090E0F8940C948F
:1009B000DF04EE0FFF1F0590F491E02D0994F894E9
:0209C000FFCF67
:1009C20000000000600158028402EE0042012C0186
:1009D200060100000000DB0158027D012202AE0187
:1009E2008C01A0010D0A0053504920554152542058
:1009F2006F6E205769466C7920536869656C642074
:100A02007465726D696E616C20746F6F6C002D2D50
:100A12002D2D2D2D2D2D2D2D2D2D2D2D2D2D2D2D04
:100A22002D2D2D2D2D2D2D2D2D2D2D2D2D2D2D2DF4
:100A32002D2D2D2D00546869732069732061207457
:100A42006F6F6C20746F2068656C7020796F7520F1
:100A520074726F75626C6573686F6F742070726FF9
:100A6200626C656D732077697468207468652057BD
:100A720069466C7920736869656C642E00466F72F2
:100A820020636F6E73697374656E7420726573751B
:100A92006C747320756E706C756720262072657099
:100AA2006C756720706F77657220746F20796F752F
:100AB200722041726475696E6F20616E642057699D
:100AC200466C7920736869656C642E0028456E73E4
:100AD200757265207468652073657269616C206D3A
:100AE2006F6E69746F72206973206E6F74206F70FD
:100AF200656E207768656E20796F752072656D6FFF
:100B0200766520706F7765722E2900417474656D69
:100B12007074696E6720746F20636F6E6E656374A4
:100B220020746F2053504920554152542E2E2E00CE
:100B3200436F6E6E656374656420746F2053504911
:100B420020554152542E00202A205573652024241A
:100B520024202877697468206E6F206C696E652086
:100B6200656E64696E672920746F20656E746572A4
:100B7200205769466C7920636F6D6D616E64206DDC
:100B82006F64652E202822434D44222900202A200A
:100B92005468656E2073656E6420656163682063C6
:100BA2006F6D6D616E6420666F6C6C6F776564202B
:100BB2006279206120636172726961676520726582
:100BC2007475726E2E0057616974696E6720666F64
:0A0BD2007220696E7075742E000029
:00000001FF
